:020000040800F2
:1000000048080020C50200081944000819380008F3
:1000100015440008E10C0008C97900080000000040
:10002000000000000000000000000000296400083B
:10003000E50C0008000000001D4400082D640008C5
:10004000DF020008DF020008DF020008DF0200080C
:10005000DF020008DF020008DF020008DF020008FC
:10006000DF020008DF020008DF020008DF020008EC
:10007000DF020008DF020008DF020008DF020008DC
:10008000DF02000800000000DF020008DF020008B5
:10009000DF020008DF020008DF020008DF020008BC
:1000A000DF020008DF020008DF020008DF020008AC
:1000B00045640008516400085D640008DF02000820
:1000C000DF020008DF020008DF020008DF0200088C
:1000D000DF020008BD790008DF020008DF02000827
:1000E000DF020008DF020008DF020008DF0200086C
:1000F000DF020008DF020008DF0200080000000045
:1001000000000000DF02000800000000DF0200081D
:10011000DF02000800000000DF020008DF02000824
:10012000DF020008DF020008DF020008DF0200082B
:10013000DF0200080000000000000000DF020008ED
:10014000DF020008DF0200080000000000000000DD
:10015000000000000000000000000000000000009F
:10016000000000000000000000000000DF020008A6
:10017000DF02000800000000000000000000000096
:1001800000000000DF020008000000000000000086
:10019000000000000000000000000000000000005F
:1001A0000000000000000000DF020008DF0200087D
:1001B000DF020008DF020008DF0200080000000084
:1001C00000000000DF020008000000000000000046
:1001D000DF020008DF02000800F002F800F063F818
:1001E00014A696E8000CB244B344DA4501D100F0FD
:1001F0005AF8BAE80F000FA696E83000A5EB040500
:1002000004EB0607AAEB0704A7F101074FEA15154F
:100210004FEA3414A4F10104AC4201D300F043F8D6
:1002200013F0010F18BFFB1A43F0010300F001F8AF
:10023000DBE718475C8E00007C8E0000103A24BF7C
:1002400078C878C1FAD8520724BF30C830C144BF3B
:1002500004680C6070470000704700000023002411
:1002600000250026103A28BF78C1FBD8520728BFC6
:1002700030C148BF0B607047642900F02D816329AD
:1002800000F09F82002070471FB507F0C7FD00F007
:10029000DBFC04000020002107F0AAFD401C606088
:1002A0001FBD10B510BD00F093FC1146FFF7ECFF29
:1002B00007F024FC00F0BAFC03B4FFF7F2FF03BC24
:1002C00000F0C6FC0948804709480047FEE7FEE702
:1002D000FEE7FEE7FEE7FEE7FEE7FEE7FEE7FEE7F6
:1002E00004480549054A064B704700003164000880
:1002F000D9010008480200204808002048040020D6
:100300004804002053EA020C00F069802DE9F04B0C
:100310004FF00006002B1FBFB3FA83F503FA05F474
:1003200024FA05F65E4012BF1643B2FA82F502FACD
:1003300005F4C5F120051EBF22FA05FC44EA0C04B1
:10034000203556EA044C4FEA144418BF641C4FF0A1
:1003500000084FF00009904271EB030C39D30029DB
:1003600019BFB1FA81F701FA07F6B0FA80F700FA7F
:1003700007F6C7F120071EBF20FA07FC46EA0C0665
:100380002037B6FBF4FCA7EB0507103F07F01F0B67
:10039000CBF120062CFA06F60CFA0BFB44BFB34651
:1003A0000026202FA4BF5E464FF0000B5BEA060C30
:1003B00008BF4FF0010B19EB0B0948EB0608ABFB2C
:1003C000027C06FB02CC0BFB03CCC01B71EB0C01C7
:1003D000C1E70B46024641464846BDE8F08B13B5DF
:1003E000084318BF4FF0FF300146AFF30080BDE86F
:1003F0001C4070470FB41CB5074B06AA7B446946E6
:100400000090059800F0BBF90020694600F0CAF999
:100410001CBC5DF814FB0000A50300002DE9F041B1
:100420000E460446002020622046E168884730B32B
:10043000252805D0D4E901219047206A401CF2E725
:10044000E168204600278847050018D0A5F1410043
:10045000192802D820354FF4006732462946204635
:100460002760FFF709FF40B1012804D0F61D26F0F0
:1004700007060836D8E7361DD6E72846DAE7206AA9
:10048000BDE8F08170B50C460546012A05D02878F4
:10049000800600D5EA69002302E0012305E05B1C29
:1004A000934202D2E05C0028F9D1A869E618C01A8C
:1004B000A861286A184428622846AFF3008004E047
:1004C000D5E9012114F8010B9047B442F8D328462E
:1004D000AFF3008070BD00002DE9F0410646002416
:1004E00010687529314616A510D0AFF3008000289A
:1004F00002DA404213A507E031688A0701D512A548
:1005000002E0490704D511A5012401E0AFF3008002
:1005100000210A2206F1240709E0B0FBF2FCB0FB3F
:10052000F2F302FB1C00303078541846491C0028B6
:10053000F3D123462A463046BDE8F04100F0C0B86A
:10054000000000002D0000002B0000002000000033
:100550000FB400B58DB010A9099000910B904FF029
:10056000FF300A9000200C90064878440690064818
:1005700078446A4607900F9909A800F035F90DB044
:100580005DF814FB9B020000B30200002DE9FF5F41
:100590004FF000089946144646469169D2E901A7F2
:1005A000DDF838B001988847054659EA0B0005D0B8
:1005B00009E0A1690198761C88470546216A28460A
:1005C00088470028F5D1681C03D05FEACA7005D0BF
:1005D00015E04FF0FF3004B0BDE8F09F2068011D2A
:1005E0002160D0F800800AE05FEACA7001D108F803
:1005F000015BA169761C01987F1E88470546002F84
:100600001ADD681C18D0B9F1000F0DD0E81705EB02
:10061000D060421120F01F0059F822102A1A012040
:1006200090400142E0D107E0BBF1000FDCD1284649
:10063000216A88470028D7D0E16901988847BBF133
:10064000000F07D1002E05DD5FEACA7002D100213C
:1006500088F80010A068B84203DDBBF1000F03D09A
:1006600017B16FF00100B6E73046B4E74FF0000273
:1006700000B5134694469646203922BFA0E80C5098
:10068000A0E80C50B1F12001BFF4F7AF090728BF73
:10069000A0E80C5048BF0CC05DF804EB890028BFEF
:1006A00040F8042B08BF704748BF20F8022B11F018
:1006B000804F18BF00F8012B704770477047704794
:1006C0002DE9F0470D4699469246044600F124086C
:1006D0000168880604D5E06921F01001216000E07E
:1006E0000120A84201DD471B00E00027A1697A191B
:1006F00002EB0900081AA0612078C00602D4204647
:10070000AFF30080002608E0D4E901211AF80600C2
:100710009047206A401C761C20624E45F4DB20780E
:10072000C0060AD52046AFF3008006E0D4E90121D7
:1007300030209047206A401C2062381EA7F1010734
:10074000F4DC07E0D4E9012118F805009047206A9D
:10075000401C2062281EA5F10105F3DC2046AFF302
:1007600000802078000602D50220BDE8F087012035
:10077000FBE7000001694A1C02610878704700B578
:100780008FB0CDE901310021059105497944CDE9CA
:10079000031011466846FFF741FE0FB000BD000090
:1007A000E5FFFFFF0A6802F8010B0A60704710B509
:1007B000436913B1AFF3008001E0FFF763FE01204E
:1007C00010BD127800F124010A7000224A70012243
:1007D000EDE711684FF0FF32E9E7000002681144CD
:1007E0001378016018467047D1600549794451611A
:1007F00004497944116200211161114600F02EB8BC
:10080000EDFFFFFF53000000426842B1016811F89C
:10081000013B23B1521EC0E9001218467047012166
:10082000C160881E704742685AB1C368016843B905
:1008300083688B4205D0491E521CC0E9001200207B
:1008400070474FF0FF30704710B5044600F0E6F9EE
:100850000068005D00F0010010BD00002DE9F34FBD
:100860004FF0000A0C4656468DB001200C9001F165
:100870000C000B9062690B9801219047051E2DD04A
:10088000252D2CD0216A8847C0B162690B980121BF
:100890009047216A88470028F7D16269411E0B986A
:1008A000904700E0761CA1690D988847216A884727
:1008B0000028F7D1E1690D988847DBE7A1690D9819
:1008C0008847A842074601D1761CD3E7E1690D9815
:1008D00088477F1C02D1BAF1000F6FD06BE16269CB
:1008E0000B9800273D46394690472A2804D1626973
:1008F0000B98012190470125DFF8D08262690B989F
:1009000001219047A0F130010A290AD24745E5DCD0
:1009100007EB870100EB4107303FDFD445F01005BE
:10092000ECE7E90601D46FF000476C280AD04C28A8
:1009300014D0682815D06A280DD074281CD07A28C5
:100940001AD01DE062690B98012190476C2802D0F3
:1009500045F0040514E045F002050DE045F02005E2
:100960000AE062690B9801219047682802D045F09F
:10097000080505E045F4006562690B980121904780
:10098000C4E9015765283DD019DC58287AD00CDC21
:10099000452837D004DC252826D041289ED131E0D7
:1009A00046282FD0472899D12CE05B2877D06128A2
:1009B00028D063287CD0642823D15AE0F6E06F2841
:1009C00048D008DC66281DD067281BD0692821D0B4
:1009D0006E2816D127E0702845D0732868D0752876
:1009E00047D078280DD14DE0A1690D98884725287A
:1009F00005463FF469AFE1690D9888476D1C3FF4E7
:100A00006AAFD8E00D9923466A466FF00100AFF354
:100A10000080C5E045F0400023464FF000026060D2
:100A2000A80736D43EE0E8077FF447AF2068011DF1
:100A300021600068290501D506701BE7290701D54B
:100A4000068017E7A90703D5F117C0E9006111E790
:100A500006600FE745F0400023464FF00802606053
:100A6000A80716D41EE040F60E0125EA01006060DA
:100A700016E045F0400023464FF00A026060A807E8
:100A800007D40FE045F040006060A80708D5234672
:100A900010220D996FF00100AFF3008080E007E0B5
:100AA000102223460D996FF00100AFF3008077E02C
:100AB0004FF0000963284F46C8464B46CB4602D04C
:100AC0005B2806D038E0E80601D40120A0600127A9
:100AD00032E06269D4F80CB00B98012190475E288F
:100AE00007D14FF0010949466269D4F80CB00B9860
:100AF0009047216939B900210A4603AB43F8212008
:100B0000491C0829FADBD8B3216949B308F1010867
:100B100062690B98012190475D28F4D1B9F1000F6B
:100B200009D0002003A951F82020D24341F8202009
:100B3000401C0828F7DB03AB2069002820794FEA26
:100B400040701ED05B462246CDF80080CDE901976B
:100B50000D9900286FF0010020DAAFF300801FE04C
:100B6000C11703AA00EBD1614B1121F01F0102EB69
:100B70008302411A13680120884003431360C7E7CA
:100B800019E00D99224600286FF00100009702DA63
:100B9000AFF3008004E0FFF7F9FC01E0AFF3008061
:100BA00000280ADA401C06D10C9820B14FF0FF3023
:100BB0000FB0BDE8F08F5046FAE7E90701D10AF11E
:100BC000010A064400200C9054E60000CCCCCC0C6A
:100BD000754600F035F8AE4605006946534620F0EC
:100BE0000700854618B020B5FFF77AFBBDE8204026
:100BF0004FF000064FF000074FF000084FF0000BD9
:100C0000AC46ACE8C009ACE8C009ACE8C009ACE847
:100C1000C00921F007018D467047000010B500F0B3
:100C200013F8001D10BD00BFC971000010B50446C7
:100C3000AFF300802046BDE81040FFF73DBB000049
:100C40000048704720000020004870474000002006
:100C500001491820ABBEFEE726000200000000009C
:100C600030B44FF0013C50F8042B51F8043BCCFA5F
:100C700052F4D51A20D1FCB950F8042B51F8043B9A
:100C8000CCFA52F4D51A17D1B4B950F8042B51F854
:100C9000043BCCFA52F4D51A0ED16CB950F8042B9F
:100CA00051F8043BCCFA52F4D51A05D1002CDAD015
:100CB00030BC4FF00000704729BAB1FA81F111F051
:100CC0001801D1F120008440F2D1CA40CB4012F08B
:100CD000FF0213F0FF0330BCD01A704770470000CA
:100CE000FEE7000070470000EFF3108072B600BF0F
:100CF000FEE70000014690F82500022828D180B5C3
:100D00000868D1E910CE8A6C036823F00E030360F3
:100D1000136823F480731360026822F001020260FA
:100D20000EF01F00012202FA00F0CCF80400D1E915
:100D300013205060486D30B1026822F48072026066
:100D4000D1E9160242600020BDE8804003E000BF08
:100D50000420C8630120012281F82520002281F8A7
:100D60002420704790F82510022931D180B5016800
:100D7000D0E910CE826C0B6823F00E030B600B6879
:100D800023F001030B60116821F4807111600EF0F3
:100D90001F02012101FA02F2CCF80420D0E913323B
:100DA0005A60426D32B1136823F480731360D0E946
:100DB0001623536080F82510826B002180F82410E0
:100DC0000AB190470021BDE880400846704700BF47
:100DD0000421C1630121002280F8251080F824201D
:100DE00008467047B0B5044600F0ECF8054640F2FE
:100DF0001000C2F200004068611C18BF044400BF2C
:100E000000F0E0F8401BA042FAD3B0BD2DE9F04F4E
:100E100082B00D68002D00F0C58000F138478605CE
:100E200046EA972741F20046C4F60006062240F241
:100E3000004EB04208BF0522C4F2010E052F38BF94
:100E40003A464FF0000C012400270026009209E0EA
:100E50000D68013635FA06F207F102070CF1040CB1
:100E600000F0A08004FA06FB15EA0B08F0D0D1F8D8
:100E700004A003230AF003056A1EBB40012A6FEA9F
:100E800003090FD88268CB6802EA0902BB401A4303
:100E900082604268CAF3001322EA0B02B3401A438D
:100EA000426003E0032D01D103251FE0C2688B6877
:100EB00002EA0902BB401A43022DC26016D16FF04C
:100EC000030202EA560202440CF01C050F23D2F87A
:100ED00020A003FA05FB0B692AEA0B0AAB4043EAA0
:100EE0000A031362D1F804A00AF00305026805FAA8
:100EF00007F302EA09021A431AF4403F0260A7D03E
:100F000041F26003C4F202031A684FF6084A42F045
:100F100001021A601A68CFF6FF7A02F0010201920C
:100F2000019A26F00302724452F80A900CF00C0564
:100F30000F23009CAB4029EA030304FA05F52B4379
:100F400042F80A30DEF808204B6842EA080540F211
:100F50000C49DC0258BF22EA0805CEF80850C4F25A
:100F60000109D9F800209D0242EA080458BF22EA8C
:100F70000804C9F80040DEF804209D0342EA080492
:100F800058BF22EA0804CEF80440DEF80020DB0354
:100F900042EA080458BF22EA0804CEF800400124BF
:100FA00056E700BF02B0BDE8F08F000000690840BE
:100FB00018BF0120704700001823002A08BF28230B
:100FC000C150704740F24020C2F2000000687047F4
:100FD00040F2100040F24021C2F20000C2F20001D3
:100FE00040680A68104408607047000080B503201C
:100FF00000F08AF80F2000F009F800281CBF01203B
:1010000080BD00F029F8002080BD000070B540F2DE
:101010001006C2F200067168E1B1044640F21C00FD
:10102000C2F200004FF47A720068B2FBF1F1B0FB3B
:10103000F1F000F0ABFE0F2C4FF0010508D838B9E5
:101040004FF0FF3021460022002500F031F83460D7
:10105000284670BD012070BD82B041F25800C4F234
:101060000200816841F001018160816801F00101A5
:1010700001910199016841F080510160006800F020
:1010800080500090009802B000F0E2B8002848BFFD
:10109000704700F01F01012202FA01F11C2202EA4E
:1010A000D0004EF20012CEF20002815070470000D4
:1010B00010B54EF60C5CCEF2000CDCF80030C3F339
:1010C000022E8EF00704042C28BF0424BEF1030373
:1010D0004FF0FF3E0EFA04F438BF0023A1439940BD
:1010E0000EFA03F39A43114300F00F0200F160433C
:1010F0000901043A03F564436244002848BF02F141
:101100000C03197010BD00004EF60C51CEF2000118
:101110000A684FF6FF031A4060F30A2242F080602B
:1011200040F0FD7008607047B0F5007F42D00028A5
:1011300040F0808047F21400C4F2000050F8141C04
:10114000C26E01F4C06122F48072B1F5806FC26694
:101150002ED150F8141C012262F34A2140F8141CCD
:1011600040F21C01C2F200010968322251434DF6DF
:101170008362C4F21B32A1FB0212910C0268520579
:1011800011D54A1C0FD0026852050CD559B102681E
:10119000520508D5012906D00268520503D5022957
:1011A000A1F10401EAD10068400544BF0320704763
:1011B0000020704747F21400C4F2000050F8141CDD
:1011C000C26E01F4C06142F48072B1F5806FC266F4
:1011D000EED150F8141C012262F34A2140F8141C8D
:1011E00040F21C01C2F200010968322251434DF65F
:1011F0008362C4F21B32A1FB0212910C02685205F9
:1012000011D54A1C0FD0026852050CD559B102689D
:10121000520508D5012906D00268520503D50229D6
:10122000A1F10401EAD10068400544BF03207047E2
:10123000BEE700BF47F21400C4F2000050F8141CCF
:10124000022262F34A2140F8141C0020704700007B
:1012500047F20800C4F20000016841F480410160D7
:10126000704700002DE9F04182B00446807841F2D9
:1012700088060007C4F2020602D400202FE000BF57
:1012800056F8300C5FEAC0080BD456F8300C40F02A
:10129000805046F8300C56F8300C00F08050019029
:1012A000019847F20007C4F20007386840F48070E4
:1012B0003860FFF787FE05463868C00500F1D68024
:1012C000FFF780FE401B0228F6D90320B8F1000F7B
:1012D00005D456F8301C21F0805146F8301C2168A6
:1012E000CA0713D18A0719D44A071FD40A0725D47D
:1012F0008A062BD44A0631D40A0637D4CA053DD40F
:101300008A0543D44A0549D457E000BF3268636870
:1013100022F003021A4332608A07E5D53268A368D7
:1013200022F00C021A4332604A07DFD53268E368C4
:1013300022F030021A4332600A07D9D53268236995
:1013400022F0C0021A4332608A06D3D5326863693C
:1013500022F440621A4332604A06CDD53268A3694E
:1013600022F440521A4332600A06C7D53268E36954
:1013700022F440421A433260CA05C1D53268236A5A
:1013800022F440321A4332608A05BBD53268636A60
:1013900022F440221A4332604A050ED53268A36A0D
:1013A00022F440121A43B3F5801F326005D156F87B
:1013B0007C2C42F4801246F87C2C0A050ED532684B
:1013C000E36A22F440021A43B3F5800F326005D17C
:1013D00056F87C2C42F4801246F87C2CCA040ED5B8
:1013E0003268236B22F040721A43B3F1807F32607F
:1013F00005D156F87C2C42F4801246F87C2C8A04E5
:101400000ED53268636B22F040621A43B3F1006F6D
:10141000326005D156F87C2C42F4801246F87C2CC0
:101420004A040ED53268A36B22F040621A43B3F12E
:10143000006F326005D156F87C2C42F4801246F8D9
:101440007C2C09040ED53168E26B21F04051114328
:10145000B2F1805F316005D156F87C1C41F48031D7
:1014600046F87C1C02B0BDE8F08100BFB06810F403
:10147000407010D0216C88420BD0B068B16820F465
:10148000407041F48031B160B16821F48031B160C5
:10149000B060C0070CD1B068216C20F440700843E4
:1014A000B0600020B8F1000F3FF519AF11E700BFA1
:1014B000FFF788FD054641F2883700BFB068800716
:1014C000E9D4FFF77FFD401BB842F7D9FDE60000E5
:1014D0002DE9F047002865D042F2000AC4F2020A62
:1014E0000446DAF800000D4600F00F0088420CD2E6
:1014F000DAF8000020F00F002843CAF80000DAF8FC
:10150000000000F00F00A8424CD1216841F2080809
:10151000C807C4F2020803D1880740F1D480B9E0BB
:10152000606802283AD0032840D158F8082C92016C
:1015300038D5D8F80420D8F8043042F20046C3F376
:10154000031302F00302D8F804700133C0F2F4066A
:10155000032A04BF43F20066C0F26E16B6FBF3F234
:10156000D8F80430C7F306277A43C3F34163022750
:1015700007EB4303B2FBF3F24BF20043C0F2C44368
:101580009A425DD9D8F8002012F0F00F4DD08907AB
:1015900056D5A168002953D147E000BF58F8081C70
:1015A000890307D40120BDE8F08700BF58F8081C64
:1015B0004905F7D5D8F8001001F00C0104293FD0F7
:1015C000D8F8001001F00C01082939D0D8F8001023
:1015D00001F00C010C2933D1D8F80410D8F80420FC
:1015E00042F20047C2F3031201F00301D8F80430BD
:1015F0000132C0F2F407032904BF43F20067C0F2CE
:101600006E17B7FBF2F1D8F80420C3F30623594351
:10161000C2F34162022303EB4202B1FBF2F14BF24F
:101620000042C0F2C44291420AD9D8F80010082200
:1016300062F307114FF00109C8F8001002E000BF83
:101640004FF00009D8F8001021F003010843C8F852
:101650000000FFF7B7FC064641F28837D8F80000D3
:10166000616800F00C00B0EB810F07D0FFF7AAFC17
:10167000801BB842F2D90320BDE8F08721688807B3
:1016800008D4B9F1000F1ED0D8F8000020F0F00007
:1016900017E000BF480705D5D8F8000040F4E06027
:1016A000C8F80000080706D5D8F80000072262F342
:1016B0000D20C8F80000D8F80000A26820F0F00063
:1016C0001043C8F80000DAF8000000F00F00A8424C
:1016D0001BD9DAF8000020F00F002843CAF80000F8
:1016E000FFF770FC064641F2883700BFDAF80000C9
:1016F00000F00F00A84207D0FFF764FC801BB8423F
:10170000F4D90320BDE8F0872168480707D5D8F849
:101710000000E26820F4E0601043C8F80000080709
:1017200008D5D8F80000216920F4605040EAC100D3
:10173000C8F80000D8F8000042F20041C0F2F401FD
:1017400000F00C00042808462DD0D8F8000000F066
:101750000C00082843F20060C0F26E1023D0D8F8C5
:10176000002002F00C020C2A1CD1D8F80420D8F872
:10177000043002F00302C3F30313D8F804700133FA
:10178000032A08BF0146B1FBF3F0D8F80410C7F3F1
:101790000627C1F341610222784302EB4101B0FB0D
:1017A000F1F000E00020D8F8001047F63662C1F3EF
:1017B0000311C0F60002515C40F21C0201F01F014F
:1017C00020FA01F140F21000C2F200000068C2F2FB
:1017D00000021160BDE8F047FFF718BC40F21C00A2
:1017E00041F20801C2F20000C4F202010068096877
:1017F00047F64662C1F30221C0F60002515C01F0D7
:101800001F01C8407047000040F21C0041F208016F
:10181000C2F20000C4F202010068096847F646629D
:10182000C1F3C221C0F60002515C01F01F01C840A3
:101830007047000041F20C01C4F2020151F8040C9F
:1018400042F20042C0F2F40200F00C0004281046FC
:1018500008BF704751F8040C00F00C00082843F250
:101860000060C0F26E1025D051F8043C03F00C0368
:101870000C2B1CBF0020704780B5D1F800C00B684E
:101880000CF0030CC3F3031E0B680EF1010EBCF148
:10189000030F08BF02460968B2FBFEF0C3F306233C
:1018A000C1F341610222584302EB4101B0FBF1F068
:1018B000BDE8804070470000002804BF0120704749
:1018C0002DE9F04182B00446007841F20006C007DD
:1018D000C4F202061ED1207880073DD4207800078C
:1018E00064D42078400700F187802078800600F1DA
:1018F000D980E569002D00F04482B06800F00C004A
:101900000C2840F03181012D40F09081012002B07F
:10191000BDE8F081B06800F00C01F068082961D0E2
:10192000032281F00C0122EA00000844B0FA80F0A2
:10193000400957D16068B0F5803F07D0B0F5A02FBF
:1019400040F0E480306840F480203060306840F43B
:1019500080303060E5E000BFB068F16800F00C0056
:10196000042871D001F0030180F00C0081F0020125
:101970000844B0FA80F0400966D1E1683068002977
:1019800000F0E08040F480703060FFF71BFB0546FC
:101990003068400500F10A81FFF714FB401B022864
:1019A000F6D9032002B0BDE8F08100BF6169D6F826
:1019B0009400002900F0948040F00100C6F89400E3
:1019C000FFF700FB054600BFD6F8940080073FF5FF
:1019D00088AFFFF7F7FA401B0228F5D9032002B0C1
:1019E000BDE8F081306880037FF575AF606800283E
:1019F0007FF471AF3EE000BFB06D5FEAC00808D46D
:101A0000B06D40F08050B065B06D00F08050019036
:101A1000019847F20007C4F200073868C0052DD4CA
:101A2000386840F480703860FFF7CCFA054600BF94
:101A30003868C00522D4FFF7C5FA401B0228F7D941
:101A4000032002B0BDE8F0813068400501D5E068B0
:101A500080B17068216920F0FE4040EA016070604A
:101A600040F21000C2F200000068FFF7CFFA002831
:101A70003FF434AF012002B0BDE8F081A068012836
:101A800008D0052840F0B080D6F8900040F004005F
:101A9000C6F89000D6F8900040F00100C6F890001B
:101AA000B0E000BFA169D6F89800002900F0868058
:101AB00040F00100C6F89800FFF784FA054600BF21
:101AC000D6F8980080073FF514AFFFF77BFA401B6C
:101AD00002284FF00300F3D902B0BDE8F08100BF47
:101AE00020F00100C6F89400FFF76CFA054600BF2D
:101AF000D6F8940080077FF5F4AEFFF763FA401B39
:101B00000228F5D9032002B0BDE8F0813168002831
:101B100021F480313160316821F48021316000F09E
:101B2000BF80FFF74FFA0546306880033FF5D3AE1C
:101B3000FFF748FA401B6428F6D9032002B0BDE83D
:101B4000F08100BF20F480703060FFF73BFA05465B
:101B5000306840057FF5C2AEFFF734FA401B02281B
:101B60004FF00300F4D9B7E7306820F080703060A0
:101B7000FFF728FA022D05460CD100BF306880011E
:101B800040F1BA80FFF71EFA401B02284FF0030015
:101B9000F4D9A1E73068800140F1EC80FFF712FA38
:101BA000401B02284FF00300F4D995E770682169C3
:101BB00020F0FE4040EA016070608FE620F00100F6
:101BC000C6F89800FFF7FEF9054600BFD6F8980062
:101BD00080077FF58EAEFFF7F5F9401B02284FF026
:101BE0000300F3D978E700BFD6F89010002821F061
:101BF0000101C6F89010D6F8901021F00401C6F843
:101C000090105DD0FFF7DEF9054641F2883700BF3E
:101C1000D6F89000800765D4FFF7D4F9401BB8428E
:101C2000F6D9032002B0BDE8F08100BFF068216A58
:101C300000F003028A427FF41DAF626A6FF00F0367
:101C400000F0F00103EB021291427FF413AFA16A9E
:101C500000F4FE42B2EB012F7FF40CAFE16A00F01A
:101C60007842B2EBC16F7FF405AF226B0023CFF651
:101C7000E07303EA025200F4C001A2F5001291429F
:101C80007FF4F8AE616B4FF07E4202EA016100F032
:101C9000C06001F17E4188427FF4ECAE71E000BF8C
:101CA000FFF790F9054600BF306880037FF513AE5B
:101CB000FFF788F9401B64284FF00300F4D90BE7C5
:101CC000FFF780F9054641F2883700BFD6F890004B
:101CD000800707D5FFF776F9401BB8424FF00300A5
:101CE000F4D9F9E6B8F1000F3FF5FFADB06D20F083
:101CF0008050B065F9E500BFF06848F20C01C0F211
:101D00009F1104F1200700EA010C8ECF6FF00F0045
:101D1000D4E90C5400EB02100022CFF6E07241EA45
:101D20000C0102EA05520843A2F500124FF07E456D
:101D300040EA032005EA0465104305F17E4540EAC8
:101D4000C7602843F060306840F080703060F06811
:101D500040F08070F060FFF735F90446306880018C
:101D60000FD4FFF72FF9001B02284FF00300F5D91D
:101D7000B2E600BFF0684FF6FC71CFF6EE610840A6
:101D8000F060002002B0BDE8F0810000411E00209C
:101D9000B0EB116F1CBF012070474EF21002CEF263
:101DA000000251604EF62351CEF20001F0230B7079
:101DB0000721906011607047704700007047000075
:101DC0007047000070470000704700007047000037
:101DD00090F83C20012A4FF002024AD070B580F8FA
:101DE0003D20026843F2004C54689368C4F2010C31
:101DF00042F6004E6245C4F2010E01D0724503D195
:101E00004D6824F470042C434FF68F75CFF6FF55C0
:101E10000E682C4042F6FF35C4F201053443AA4255
:101E200054600FDCB2F1804F16D040F20046C4F28D
:101E30000006B24210D040F60006C4F20006B242DC
:101E40000AD00EE0724507D044F20006C4F2010643
:101E5000B24201D0624504D1896823F0800319435E
:101E600091600121002280F83D1080F83C20BDE8FF
:101E7000704010467047000070470000002804BF03
:101E80000120704710B5044690F83D0028B90020A5
:101E900084F83C00204600F023F8022084F83D003E
:101EA0002068211D04F0E0FA012084F8480084F83D
:101EB0003E0084F83F0084F8400084F8410084F834
:101EC000420084F8430084F8440084F8450084F814
:101ED000460084F8470084F83D00002010BD000053
:101EE00010B584B0006840F60001C4F200018842D9
:101EF0001AD040F20041C4F20001884224D0B0F16F
:101F0000804F1CBF04B010BD41F25800C4F2020063
:101F100001681C2441F001010160006800F001002B
:101F2000039003981EE000BF41F25800C4F2020083
:101F300001681E2441F004010160006800F0040003
:101F4000019001980EE000BF41F25800C4F2020077
:101F500001681D2441F002010160006800F00200E8
:101F600002900298204600210022FFF7A1F82046A7
:101F700004B0BDE81040FFF789B8000090F83D10AC
:101F800001291DD1022180F83D10016842F6FF327F
:101F9000C868C4F20102914240F00100C86011DC3F
:101FA000B1F1804F20D040F20040C4F200008142E5
:101FB0001AD040F60000C4F20000814214D020E0A4
:101FC0000120704742F60040C4F2010081420BD06C
:101FD00044F20000C4F20100814205D043F2004007
:101FE000C4F2010081420CD188680722C0F20102CC
:101FF0000240062A4FF00000E3D0B2F5803F08BF50
:102000007047086840F00100086000207047000039
:1020100090F83C20012A4FF0020200F0AC8080B51D
:1020200080F83D20D0F800C08822DCF80830CFF6D8
:10203000CE721A40CCF808200B686F2B10DD1F22DF
:10204000C0F21002934237DCB3F5005F46DA702B22
:1020500000F09480B3F5805F00F08480D8E000BF8A
:102060002F2B35DD4F2B3FDC302B6FD0402B40F03A
:10207000CF80D1F804E0C968DCF82030DCF82020FB
:1020800022F00102CCF82020DCF8182022F0F00227
:1020900042EA011123F00A0242EA0E02CCF81810BB
:1020A000CCF82020DCF808104FF68872CFF6CF72FB
:1020B0001140473154E000BF3F21C0F210018B4274
:1020C0003ADC2021C0F210018B423FD0302139E0B0
:1020D000E3B3102B3AD0202B38D099E062D0B3F183
:1020E000101F33D094E000BF502B6FD0602B40F016
:1020F0008F80D1F804E0C968DCF82030DCF82020BB
:1021000022F01002CCF82020DCF8182022F47042D3
:1021100042EA013123F0A00242EA0E12CCF8181074
:10212000CCF82020DCF808104FF68872CFF6CF727A
:102130001140673114E000BF4021C0F210018B4212
:1021400004D07021C0F210018B4261D1DCF808107C
:102150004FF68872CFF6CF721140194341F0070154
:10216000CCF808100022012180F83D10002180F8F1
:102170003C10BDE880401046704700BFD1E901E344
:10218000C968DCF8082043EA0E0322F47F4243EAE0
:1021900001211143CCF80810DCF8081041F0770158
:1021A000DEE700BFD1E901E3C968DCF8082043EAB3
:1021B0000E0322F47F4243EA01211143CCF80810B8
:1021C000DCF8081041F48041CAE700BFD1F804E010
:1021D000C968DCF82030DCF8202022F00102CCF8BD
:1021E0002020DCF8182022F0F00242EA011123F04E
:1021F0000A0242EA0E02CCF81810CCF82020DCF8D3
:1022000008104FF68872CFF6CF7211405731A7E70A
:102210000122A8E770470000F0B581B004460068CD
:10222000C5680669B10717D515F0020114D06FF023
:1022300002010161012121778069800704D02046D5
:10224000FFF7E8FF06E000BF204600F0CBF820468D
:1022500000F0ECFA00202077700719D515F0040083
:1022600016D020686FF00401016102212177806996
:1022700010F4407F04D02046FFF7CCFF06E000BFFB
:10228000204600F0AFF8204600F0D0FA002020777A
:10229000300717D515F0080014D020686FF008013A
:1022A000016104212177C069800703D02046FFF730
:1022B000B1FF05E0204600F095F8204600F0B6FAA0
:1022C00000202077F00619D515F0100016D02068F0
:1022D0006FF01001016108212177C06910F4407F7F
:1022E00004D02046FFF796FF06E000BF204600F02E
:1022F00079F8204600F09AFA00202077F00718BFFE
:1023000015F0010006D020686FF001010161204640
:1023100000F056FB16F4025F05F0800718BF002F8F
:1023200002D1F00509D410E020686FF40251016178
:102330002046FFF743FDF00507D537B120686FF45D
:10234000807101612046FFF737FD700609D515F051
:10235000400006D020686FF040010161204600F087
:10236000C7FCB00609D515F0200006D020686FF034
:10237000200101612046FFF723FDF00209D515F485
:10238000801006D020686FF4801101612046FFF7AD
:102390001BFDB00209D515F4001006D020686FF4BB
:1023A000001101612046FFF70DFD700209D515F4FB
:1023B000800006D020686FF4800101612046FFF79D
:1023C00005FD30020CD515F4000009D021686FF42A
:1023D000000220460A6101B0BDE8F040FFF74CBDA5
:1023E00001B0F0BD7047000090F83C30012B04BFF5
:1023F000022070474FEAB202052A00F293812DE9CC
:10240000F041DFE812F007005500A900FD0051017E
:10241000950100BF03681D6A1A6AA3F1804622F085
:1024200001021A621A46A6F596369F05D3F804C033
:1024300052F818EF47EA96268F68D1F8008025F009
:102440000205072E45EA07050AD80127B74017F00D
:10245000E50F1FBFCF6825F00C0527F004073D43AB
:10246000072E0CD8012707FA06F616F0E50F1FBF56
:10247000D1E905672CF44074264346EA070C4FF671
:102480008C74CFF6FE740EEA040747EA0807C3F817
:1024900004C09F614F6809695F631D629F6947F0CF
:1024A00008079F619F6927F004079F617EE100BFD5
:1024B000036843F200461D6A1A6AC4F2010622F05C
:1024C00010021A621A46D3F804C052F8188FB342A9
:1024D0008E68D1F800E025F0200545EA061505D004
:1024E00042F60046C4F20106B34207D1CE686FF04F
:1024F000400725F0C00507EA06163543A3F18046DC
:10250000A6F596369F0547EA9626072E0CD8012792
:1025100007FA06F616F0E50F1FBFD1E905672CF4A0
:102520004064374344EA870C48F6FF44CFF6FF6423
:1025300004EA080444EA0E27C3F804C09F614F6808
:1025400009699F631D629F6947F400679F619F69E6
:1025500027F480679F6128E1036843F200461D6A03
:102560001A6AC4F2010622F480721A621A46D3F87B
:1025700004C052F81C8FB3428E68D1F800E025F4F5
:10258000007545EA062505D042F60046C4F201066C
:10259000B34207D1CE6840F2FF47360225F44065CA
:1025A000BE433543A3F18046A6F596369F0547EA1C
:1025B0009626072E0CD8012707FA06F616F0E50F27
:1025C0001FBFD1E905672CF44054374344EA071C88
:1025D0004FF68C74CFF6FE7404EA080444EA0E0742
:1025E000C3F804C0DF614F680969DF631D62DF69FA
:1025F00047F00807DF61DF6927F00407DF61D5E0F6
:10260000036843F200461D6A1A6AC4F2010622F406
:1026100080521A621A46D3F804C052F81C8FB34293
:102620008E68D1F800E025F4005545EA063505D05E
:1026300042F60046C4F20106B34207D1CE6844F622
:10264000FF77360325F44045BE433543A3F180466A
:10265000A6F596369F0547EA9626072E0CD8012741
:1026600007FA06F616F0E50F1FBFD1E905672CF44F
:102670004044374344EA871C48F6FF44CFF6FF64E2
:1026800004EA080444EA0E27C3F804C0DF614F6877
:1026900009691F641D62DF6947F40067DF61DF6954
:1026A00027F48067DF6180E00368D3F820C01A6AEE
:1026B000A3F1804722F480321A621A46A7F59637B2
:1026C0009C055D6852F8508FD1F800E08E6844EAAE
:1026D0009727072F09D80124BC4014F0E50F1EBF2F
:1026E0004C6925F4803545EA04252CF4003747EA87
:1026F00006474FF68C76CFF6FE76033606EA0806D6
:1027000046EA0E065D601E654E6809699E641F629A
:102710001F6D47F008071F651F6D27F004071F6531
:1027200044E000BF0121002280F83C2008467047A9
:102730000368D3F820C01A6AA3F1804722F48012FC
:102740001A621A46A7F596379C055D6852F8508FB5
:10275000D1F800E08E6844EA9727072F09D80124B2
:10276000BC4014F0E50F1EBF4C6925F4802545EAF6
:1027700084252CF4001747EA065748F6FF46CFF6A3
:10278000FF6606F5407606EA080646EA0E265D6014
:102790001E654E680969DE641F621F6D47F400679D
:1027A0001F651F6D27F480671F65090213681943B1
:1027B00011600021BDE8F041002280F83C2008466D
:1027C00070470000002804BF0120704710B5044680
:1027D00090F83D0028B9002084F83C00204600F025
:1027E00023F8022084F83D002068211D03F03CFE00
:1027F000012084F8480084F83E0084F83F0084F803
:10280000400084F8410084F8420084F8430084F8D2
:10281000440084F8450084F8460084F8470084F8B2
:102820003D00002010BD0000704700007047000010
:1028300071B10A1F8B0743EA9202032A12D8DFE81C
:1028400002F00315191D00BF00F13F0318E000BF9F
:1028500090F83E20012A1CBF01207047022280F818
:102860003E202CE000F143030AE000BF00F14003EA
:1028700006E000BF00F1410302E000BF00F14203A7
:102880001B78012B1CBF01207047032A08D8DFE802
:1028900002F0030B0F1300BF022280F83F200EE06E
:1028A000022280F843200AE0022280F8402006E05D
:1028B000022280F8412002E0022280F842200268D1
:1028C00001F01F014FF0010C136A0CFA01F18B4368
:1028D0001362136A90050B43A2F18041A1F5963172
:1028E00040EA91210629136244D80CFA01F010F055
:1028F000650F3FD0506C42F6FF31C4F2010140F445
:1029000000408A4250640FDCB2F1804F1ED040F28A
:102910000040C4F20000824218D040F60000C4F229
:102920000000824212D01EE042F60040C4F20100D4
:1029300082420BD044F20000C4F20100824205D072
:1029400043F20040C4F2010082420CD1906807219A
:10295000C0F20101014006294FF0000008D0B1F596
:10296000803F08BF7047106840F0010010600020F1
:10297000704700BF42F6FF30C4F201008242C3DD5F
:1029800043F6FF70C4F20100824207DC42F60040C9
:10299000C4F201008242D3D1D8E700BF44F2000064
:1029A000C4F201008242D1D044F60000C4F201001A
:1029B000824202BF506C40F400405064D3E70000F4
:1029C0002DE9F04740F200440546C4F600040068D3
:1029D00004F17841884207D004F1784101F5806123
:1029E000884240F05381A6E020460121FEF7DEFA3E
:1029F00040F22426002818BF0120C2F20006B07061
:102A000020460221FEF7D2FA002818BF0120F071FB
:102A100020460421FEF7CAFA002818BF01203073AF
:102A20004FF090400121FEF7C1FA317800280246AC
:102A300018BF01220229727408D0012912D0B9B935
:102A4000B178A9B90121318012E000BFB178002925
:102A500000F01E8171780022502932709CBF012144
:102A6000F17005E0B178002914BF00210221317016
:102A7000717979B1012915D0022919D1F17900298B
:102A800000F01281B1790022502972719CBF01219E
:102A900031720DE0F179002904BF0121A6F805107B
:102AA00006E000BFF17900290CBF022100217171FD
:102AB000B17A79B1012913D0022917D1317B0029CC
:102AC00000F0FE80F17A00225029B2729CBF0121F1
:102AD00071730BE0317B002904BF0121718105E096
:102AE000317B00290CBF02210021B172F17B79B149
:102AF000012913D0022916D1002800F0ED80307C86
:102B000000215028F1739CBF0120B0740BE000BF7E
:102B1000002804BF0120A6F80F0004E000280CBF25
:102B200002200020F073286804F1784101F58061EB
:102B3000884240F0AB8040F2A309C2F2000999F844
:102B4000000040F6004440F23C2AC4F6000400288D
:102B5000C2F2000A47D0A4F5806528464FF47F41B1
:102B600001224FF00108FEF727FA20460421012236
:102B7000FEF722FA2046042100220026FEF71CFA66
:102B800028464FF480710022FEF716FA20460421F1
:102B90000122FEF711FA204604210022FEF70CFA6A
:102BA000DAF8000001303228CAF800001BD140F2E8
:102BB000AC00C2F20000016864228A634F228A627C
:102BC00040F2E732CA62C26040F2A500C2F20000E1
:102BD00080F8008040F2A100C2F200000670CAF83E
:102BE000006089F8006040F2A406C2F20006307866
:102BF00060B340F23827C2F200073878A4F5806548
:102C000080F00100387028464FF47D410122FEF724
:102C1000D3F938784FF4007180F001022846FEF7AE
:102C2000CBF9204604210122FEF7C6F920460421F3
:102C300000220025FEF7C0F9DAF800000130322842
:102C4000CAF8000004D1CAF800503570012003E032
:102C50003078B0FA80F0400999F80010002918BFC8
:102C6000BDE8F08790B1A4F580604FF47F41012268
:102C7000FEF7A2F9204604210122FEF79DF9204625
:102C800004210022BDE8F047FEF796B9BDE8F087C1
:102C900071780131CAB2512A7170FFF4E9AE002196
:102CA000317001213171E3E6B1790131CAB2512AA3
:102CB000B171FFF4FDAE0021717101217172F7E66F
:102CC000F17A0131CAB2512AF172FFF40FAF00213B
:102CD000B1720121B17309E7307C0130C1B25129D1
:102CE0003074FFF420AF0020F0730120F0741AE775
:102CF0007047000090F88410012904BF022070473B
:102D00002421C0F8881002681168136823F00103B9
:102D1000136021F000530021416613602022C0F8A7
:102D2000882080F884100846704700007047000033
:102D30007047000090F88420012A04BF02207047E9
:102D4000B0B52422C0F888200268D0F864E0D2F838
:102D500000C01368BEF1000F23F0010313609368F5
:102D600023F0606341EA0301916019D09368916890
:102D700049F2480E490FC0F6000E49F250051EF800
:102D80000140C0F60005695CC3F34263E400B4FB94
:102D9000F1F11EF80340EB5CE500B5FBF3F301E055
:102DA00001210123A0F86A102021A0F86830C2F8A0
:102DB00000C0C0F88810002180F88410BDE8B04041
:102DC0000846704790F88420012A04BF022070470B
:102DD000B0B52422C0F888200268D0F864E0D2F8A8
:102DE00000C01368BEF1000F23F001031360936865
:102DF00023F0604341EA0301916019D09368916820
:102E000049F2480E490FC0F6000E49F250051EF86F
:102E10000140C0F60005695CC3F34263E400B4FB03
:102E2000F1F11EF80340EB5CE500B5FBF3F301E0C4
:102E300001210123A0F86A102021A0F86830C2F80F
:102E400000C0C0F88810002180F88410BDE8B040B0
:102E50000846704770470000704700007047000048
:102E600070B5016840F62F03CA69044608688E6889
:102E70001340202B0CD100F0200306F080555B1985
:102E800017D0616F69B32046BDE87040084700BFA6
:102E900040F60F031A420CD00123C1F2000306EAE8
:102EA000030C40F22013C0F20043034013EB0C0369
:102EB00028D1E36ED50615D5012B13D110F01003E0
:102EC00010D0102008628868400627D4B4F85C004F
:102ED000B4F85E10B4F85E20002A18BF884240F0B3
:102EE0003F8270BDD30240F1D58016F4800300F01C
:102EF000D1804FF4801220460A62BDE87040FFF78F
:102F0000ABBF00BFD30718BF10F4807340F00C8133
:102F1000930706F0010E00F113811CE1D4F8800044
:102F2000006841688AB2002ADBD0B4F85C309A426B
:102F3000D7D2A4F85E100068800600F19E80206859
:102F400050E8000F216820F4807041E80002DAB1F7
:102F5000206850E8000F216820F4807041E80002EA
:102F600092B1206850E8000F216820F4807041E899
:102F700000024AB1206850E8000F216820F48070F8
:102F800041E80002002ADAD1206850E8020F2168E7
:102F900020F0010041E80202BAB3206850E8020FB5
:102FA000216820F0010041E8020272B3206850E875
:102FB000020F216820F0010041E802022AB32068D4
:102FC00050E8020F216820F0010041E80202002AC7
:102FD000DAD11AE0206850E8020F216820F04000A2
:102FE00041E80202DAB1206850E8020F216820F0BF
:102FF000400041E8020292B1206850E8020F2168C7
:1030000020F0400041E802024AB1206850E8020F77
:10301000216820F0400041E80202002ADAD1202095
:10302000C4F88C000020E066206850E8000F21689A
:1030300020F0100041E80002DAB1206850E8000FEB
:10304000216820F0100041E8000292B1206850E8A9
:10305000000F216820F0100041E800024AB120680A
:1030600050E8000F216820F0100041E80002002A1B
:10307000DAD1D4F88000FDF73DFE02202067B4F8D5
:103080005C00B4F85E10401A81B22046BDE8704082
:10309000FFF74CBE110606D500F0800106F40003D0
:1030A000C91840F0DF81510632D510F040012FD011
:1030B000206850E8000F216820F0400041E800023D
:1030C000DAB1206850E8000F216820F0400041E8A4
:1030D000000292B1206850E8000F216820F0400003
:1030E00041E800024AB1206850E8000F216820F052
:1030F000400041E80002002ADAD120200021C4F873
:1031000088002046A167BDE8704000F083BB00BF87
:10311000110240F1B38110F0804100F0AF812046F0
:10312000BDE87040FFF796BE01230B62D4F89030E3
:1031300043F00103C4F89030930706F0010E0AD55E
:10314000BEF1000F07D002230B62D4F8903043F099
:103150000403C4F8903053070AD5BEF1000F07D01E
:1031600004230B62D4F8903043F00203C4F890308B
:1031700013070CD500F0200353EA0C0307D00823F3
:103180000B62D4F8903043F00803C4F89030130574
:103190000BD510F0806308D04FF400630B62D4F8B5
:1031A000903043F02003C4F89030D4F89030002BD6
:1031B0003FF497AE92060AD500F0200006F0805248
:1031C000801804D0626F12B1204690472168D4F86D
:1031D0009000896800F0280001F04001401807D1F4
:1031E0002046FFF73BFE0020C4F8900070BD00BFF2
:1031F000206850E8000F216820F4907041E8000238
:10320000DAB1206850E8000F216820F4907041E89E
:10321000000292B1206850E8000F216820F49070FD
:1032200041E800024AB1206850E8000F216820F40C
:10323000907041E80002002ADAD14FF6FE70CEF617
:10324000FF7000BF216851E8021F2268014042E878
:103250000213C3B1216851E8021F2268014042E80D
:10326000021383B1216851E8021F2268014042E83D
:10327000021343B1216851E8021F2268014042E86D
:103280000213002BDED1E06E012824D1206850E823
:10329000000F216820F0100041E80002DAB1206838
:1032A00050E8000F216820F0100041E8000292B1C0
:1032B000206850E8000F216820F0100041E800026B
:1032C0004AB1206850E8000F216820F0100041E862
:1032D0000002002ADAD12020C4F88C000020E06629
:1032E000216860678868400640F1C280206850E825
:1032F000020F216820F0400041E80202DAB12068A4
:1033000050E8020F216820F0400041E8020292B12B
:10331000206850E8020F216820F0400041E80202D6
:103320004AB1206850E8020F216820F0400041E8CF
:103330000202002ADAD1D4F88000002800F0988038
:1033400046F2E971C0F600018163FDF70BFD00282C
:103350003FF4C7ADD4F88000816BBDE870400847EA
:10336000401A00BF216851E8001F226821F49071C3
:1033700042E80013DBB1216851E8001F226821F404
:10338000907142E8001393B1216851E8001F226850
:1033900021F4907142E800134BB1216851E8001FFD
:1033A000226821F4907142E80013002BDAD14FF625
:1033B000FE71CEF6FF7100BF226852E8022F23682B
:1033C0000A4043E80226C6B1226852E8022F236869
:1033D0000A4043E8022686B1226852E8022F236899
:1033E0000A4043E8022646B1226852E8022F2368C9
:1033F0000A4043E80226002EDED12021C4F88C10BA
:103400000021E166616700BF216851E8001F226862
:1034100021F0100142E80013DBB1216851E8001FE0
:10342000226821F0100142E8001393B1216851E8AD
:10343000001F226821F0100142E800134BB12168FF
:1034400051E8001F226821F0100142E80013002B10
:10345000DAD1022281B220462267BDE87040FFF730
:1034600065BC00BFA16F00297FF40DAD39E500BF39
:103470002046BDE87040FFF7F1BC00BFD1017FF5E9
:1034800030ADB0F1FF3FC8BF70BD2046BDE8704011
:10349000FFF74EBC10B5D0B10446D0F8880028B96B
:1034A000002084F88400204600F026F82420C4F888
:1034B00088002068A16A026822F00102026011B14E
:1034C000204603F063F8204603F05EFE10B10120B1
:1034D00010BD00BF2168486820F4904048608868AB
:1034E00020F02A008860086840F0010220460A6047
:1034F000BDE8104003F0C0B810B596B00446684669
:1035000008303C21FDF7B2F8206843F60001C4F210
:103510000101884202D016B010BD00BF012000900A
:10352000002468460194FDF79DFE002818BFFDF7B2
:10353000DBFB41F24C00C4F20200416941F48041DE
:103540004161416901F4804111911199016841F093
:1035500001010160006811A900F0010011901198AB
:103560004FF4C06011900220CDE91204072015909D
:103570004FF090401494FDF749FC252000210022D3
:10358000FDF796FD2520FDF781FD16B010BD00006A
:10359000D0F88C30202B07D100294FF0010318BF41
:1035A000002A05D11846704702231846704700BF0D
:1035B00080B50023C366D0F800C048F20003C4F20F
:1035C00000039C4534D0DCF804301B0230D500BF2A
:1035D000036853E800CFD0F800E04CF080634EE879
:1035E000003CBCF1000F23D0036853E800CFD0F8B3
:1035F00000E04CF080634EE8003CBCF1000F17D0B7
:10360000036853E800CFD0F800E04CF080634EE848
:10361000003CBCF1000F0BD0036853E800CFD0F89A
:1036200000E04CF080634EE8003CBCF1000FCFD1CD
:1036300003F0F6FE002080BD006843F60001C4F2EE
:103640000101884218BF7047B0B540F28004C2F251
:1036500000042146207811F8022F431C2044C27038
:1036600040F29010C2F20000012223700125FFF702
:103670008FFF2078072808BF6570BDE8B04070470D
:103680002DE9F0410446D0F8880020281CBF022014
:10369000BDE8F0810D4600294FF0010000F0B88030
:1036A0001646002A08BFBDE8F0810020C4F890004B
:1036B00021209846C4F88800FDF784FCA4F85460E3
:1036C000A4F85660A1680646B1F5805F02D1206972
:1036D00000286BD02F460025B4F8560000286BD088
:1036E00018F101001CD0B8F1000F3DD121680BE0AA
:1036F00017F8010B8862B4F856000138A4F8560098
:10370000B4F85600002858D0C869000640F17A8005
:10371000002FEDD135F8020B00276FF35F20E9E7AA
:10372000216802E0C869000609D4C869000606D409
:10373000C86900065CBFC8695FEA0060F2D51FB1C6
:1037400017F8010B05E000BF35F8020B00276FF3F7
:103750005F208862B4F856000138A4F85600B4F827
:1037600056000028E1D128E0216800BFC8690006A2
:1037700008D4FDF727FC801B404545D82168086820
:10378000F4E700BF17B117F8010B04E035F8020B9E
:1037900000276FF35F208862B4F856000138A4F860
:1037A0005600B4F856000028E0D106E00027B4F82F
:1037B000560000287FF494AF2168C86940061FD4E2
:1037C000B8F1000F1ED018F101000FD1C8694006F2
:1037D00016D4C869400613D4C869400610D4C86915
:1037E00040064FF00000F1D50FE000BFFDF7EAFB07
:1037F000801B404508D820680168C0694006F5D59F
:10380000002002E0FDF7DEFB03202021C4F8881031
:10381000BDE8F08170470000FEE7000040F218416B
:10382000C4F600010A6942F400720A610A6942F4AE
:1038300080720A610A6842F020020A602022C1F800
:10384000FC230A6942F020020A6100BF00BF00BFEA
:103850000A6842F020020A600A6842F480720A6034
:103860000022C1F8FC230B6943F020030B6100BF69
:1038700000BF00BF0B6843F020030B600B6843F4EC
:1038800080730B600B6943F400730B610B6943F4A5
:1038900080730B610B6843F020030B602123C1F898
:1038A000FC330B6943F020030B6100BF00BF00BF76
:1038B0000B6843F020030B600B6843F480730B60CC
:1038C000C1F8FC230A6942F020020A6100BF00BF70
:1038D00000BF0A6842F020020A600A6842F480725F
:1038E0000A600A6942F400720A610A6942F480724D
:1038F0000A610A6842F020020A602222C1F8FC2311
:103900000A6942F020020A6100BF00BF00BF0A68D6
:1039100042F020020A600A6842F480720A6000BF26
:1039200000BF00BF0A6842F400720A604FF496328A
:103930000B69053A43F400730B610B6843F4807321
:103940000B600B6843F020030B60C1F8FC030B69AC
:1039500043F020030B6100BF00BF00BF0B6843F0C2
:1039600020030B600B6843F480730B6000BF00BF43
:1039700000BF0B6843F400730B600B6943F40073E2
:103980000B610B6843F480730B600B6843F02003FA
:103990000B60C1F8FC030B6943F020030B6100BF0F
:1039A00000BF00BF0B6843F020030B600B6843F4BB
:1039B00080730B6000BF00BF00BF0B6843F400734F
:1039C0000B600B6943F400730B610B6843F4807365
:1039D0000B600B6843F020030B60C1F8FC030B691C
:1039E00043F020030B6100BF00BF00BF0B6843F032
:1039F00020030B600B6843F480730B6000BF00BFB3
:103A000000BF0B6843F400730B600B6943F4007351
:103A10000B610B6843F480730B600B6843F0200369
:103A20000B60C1F8FC030B6943F020030B6100BF7E
:103A300000BF00BF0B6843F020030B600B6843F42A
:103A400080730B6000BF00BF00BF0B6843F40073BE
:103A50000B600B6943F400730B610B6843F48073D4
:103A60000B600B6843F020030B60C1F8FC030B698B
:103A700043F020030B6100BF00BF00BF0B6843F0A1
:103A800020030B600B6843F480730B6000BF00BF22
:103A900000BF0B6843F400730B607FF449AF7047BD
:103AA0000A78002A08BF70472DE9F04147F64E68B2
:103AB00004464D1C002740F23F16C0F6000800BF28
:103AC000A2F12000C1B2490051FA80F008EB0012C7
:103AD000B1B2204600F00AF8EA5D22B1103E132F81
:103AE00007F10107ECD3BDE8F04170472DE9F0473D
:103AF00040F21843C4F600031F694FF0200C47F44E
:103B000000771F611F694FF0210E47F480771F6116
:103B10001F6840F2180947F020071F60C3F8FCC374
:103B20001F6940F2A80A47F020071F6100BF00BFCD
:103B300000BF1F684FF0220847F020071F601F6872
:103B4000C2F2000947F480771F60C3F8FC031F69C5
:103B5000C2F2000A47F020071F6100BF00BF00BF8C
:103B60001F6847F020071F601F6847F480771F60B9
:103B70001F6947F400771F611F6947F480771F6151
:103B80001F6847F020071F60C3F8FCE31C6944F07E
:103B900020041C6100BF00BF00BF1C6844F020046B
:103BA0001C601C6844F480741C60C3F8FC131C691E
:103BB00044F020041C6100BF00BF00BF1C6844F03B
:103BC00020041C601C6844F480741C60002400BF46
:103BD0001D6945F400751D611D6945F480751D6101
:103BE0001D6845F020051D60C3F8FC831D6945F084
:103BF00020051D6100BF00BF00BF1D6845F0200506
:103C00001D601D6845F480751D6000BF00BF00BFCA
:103C10001D6845F400751D60002500BF32F8146072
:103C2000EE40F607564608BF4E4636881F6947F4F1
:103C300000771F611F6847F480771F601F6847F097
:103C400020071F60C3F8FC631E696F1C46F0200646
:103C50001E6100BF00BF00BF1E6846F020061E6048
:103C60001E6846F480761E6000BF00BF00BF1E685D
:103C700046F400761E6032F81460FE40F6075646A1
:103C800008BF4E4636881F6947F400771F611F68DA
:103C900047F480771F601F6847F020071F60C3F854
:103CA000FC631E69AF1C46F020061E6100BF00BF0A
:103CB00000BF1E6846F020061E601E6846F480762F
:103CC0001E6000BF00BF00BF1E6846F400761E6085
:103CD00032F81460FE40F607564608BF4E46368856
:103CE0001F6947F400771F611F6847F480771F60E2
:103CF0001F6847F020071F60C3F8FC631E69EF1CB4
:103D000046F020061E6100BF00BF00BF1E680435DC
:103D100046F020061E601E6846F480761E6000BFD6
:103D200000BF00BF1E6846F400761E6032F81460C3
:103D3000FE40F607564608BF4E4636881F69102DCE
:103D400047F400771F611F6847F480771F601F6882
:103D500047F020071F60C3F8FC631E6946F0200689
:103D60001E6100BF00BF00BF1E6846F020061E6037
:103D70001E6846F480761E6000BF00BF00BF1E684C
:103D800046F400761E607FF449AF1D69013045F4AA
:103D900000751D611D69013445F480751D611D6844
:103DA000182C45F020051D60C3F8FCC31D6945F0C3
:103DB00020051D6100BF00BF00BF1D6845F0200544
:103DC0001D601D6845F480751D60C5B2C3F8FC53C5
:103DD0001D6945F020051D6100BF00BF00BF1D68C3
:103DE00045F020051D601D6845F480751D601D6946
:103DF00045F400751D611D6945F480751D611D68E0
:103E000045F020051D60C3F8FCE31D6945F0200561
:103E10001D6100BF00BF00BF1D6845F020051D608B
:103E20001D6845F480751D60C3F8FC131D6945F0DD
:103E300020051D6100BF00BF00BF1D6845F02005C3
:103E40001D601D6845F480751D6008BFBDE8F087E2
:103E5000BEE600002DE9F04F8BB0002641F24C0089
:103E60000596C4F20200016840F2184541F00401D1
:103E700001600168C4F6000501F00401069106998D
:103E8000016801AC41F001010160016840F61409CC
:103E900001F00101069106990168C4F6000941F09C
:103EA000020101600068214600F0020006900698B9
:103EB0004FF44870019001200290A5F118000127ED
:103EC000CDE90366FCF7A2FF4FF48070CDE901074E
:103ED0004FF090402146CDE90366FCF797FF4FF67F
:103EE000FF7005F57A7406904FF0030806A9204686
:103EF0000A964FF6FF7B0797CDE90868FCF786FF27
:103F00004FF6004ACFF6FF7A55F80A0006A940F4AA
:103F1000807045F80A0028684FF6FF7740F4087073
:103F20002860286940F400702861286940F4807096
:103F30002861286840F020002860C9F800602869DE
:103F400040F02000286100BF00BF00BF286840F09B
:103F500020002860286840F48070286020460A9677
:103F6000CDF818B0CDF82480CDE90766FCF74EFFF8
:103F70004FF6104BCFF6FF7B55F80B0007A940F426
:103F8000807045F80B0000BF00BF00BFD5F8F89364
:103F900055F80A0040F4807045F80A00012081E8D5
:103FA000410106A920460A960697FCF72FFF2868CC
:103FB00048F2302140F40070286040F2AA00C2F2BA
:103FC0000000A0F800900088884203D100F028FA91
:103FD00002E000BF00F098FF2869002640F400705E
:103FE000286128694FF6FF7840F4807028612868BE
:103FF0004FF0030940F02000286040F61400C4F69A
:1040000000000660286906A940F02000286100BF72
:1040100000BF00BF286840F020002860286840F4F6
:104020008070286020460A96CDE90686CDE90869A9
:10403000FCF7ECFE55F80B0007A940F4807045F83A
:104040000B0000BF00BF00BFD5F8F87355F80A0099
:1040500040F4807045F80A00012081E8410206A979
:1040600020460A96CDF81880FCF7D0FE286840F468
:104070000070286040F2AA00C2F2000007800BB076
:10408000BDE8F08F81B0ADF80200BDF8020040F24B
:104090001801C2F20001088001B0704781B0ADF88C
:1040A0000200BDF8020040F2A801C2F2000108803F
:1040B00001B070472DE9F04387B04FF0000941F29D
:1040C0004C00CDF81890C4F20200016840F60005DB
:1040D00041F0040101600168C4F6000501F004012B
:1040E000019101990168002241F0200101600168FD
:1040F0004FF47F4601F0200101910199016841F0E0
:1041000001010160016801F001010191019901685B
:1041100041F002010160016801F002010191019981
:10412000016841F00801016000684FF47F4100F030
:104130000800019001982846FCF73EFF05F58064D1
:104140002046042100224FF00408FCF735FF0296B8
:1041500002AE012728463146CDE90379CDF8149007
:10416000FCF754FE4FF090403146CDE902790497B8
:10417000FCF74CFE0720CDE90209A5F58060314629
:104180000497FCF743FE20463146CDE90287CDE98E
:104190000499FCF73BFE07B0BDE8F08310B594B07E
:1041A00040F2AC000021C2F200004FF080424F23E9
:1041B00040F2E7340E91CDE90C11CDE90911CDE9BA
:1041C0000711CDE90511CDE90311CDE90111C0E9D0
:1041D0000023C0E9021401618161FDF74FFE002850
:1041E00018BFFCF781FD4FF480500B9040F2AC00FB
:1041F000C2F200000BA9FDF70BFF002818BFFCF767
:1042000073FD40F2AC00C2F20000FEF7DBFA0028BA
:1042100018BFFCF769FD40F2AC000024C2F20000B8
:1042200008A908940A94FDF7D3FD002818BFFCF7ED
:104230005BFD602001906420CDE90204059440F20A
:10424000AC04C2F2000401A920460422FEF7CCF817
:10425000002818BFFCF748FD2068B0F1804F01D05E
:1042600014B010BD41F24C00C4F20200016841F0EC
:104270000101016000680FA900F001000F900F9884
:104280000220CDE90F000020CDE91100012013909C
:104290004FF09040FCF7BAFD14B010BD80B588B067
:1042A00040F2F80040F200420021C2F20000C4F2E5
:1042B00000024F2342F20F7C0791CDE905110291D4
:1042C000C0E90023C0E9021C01618161FDF7D6FD50
:1042D000002818BFFCF708FD4FF48050049040F20E
:1042E000F800C2F2000004A9FDF792FE002818BFF2
:1042F000FCF7FAFC00200190039040F2F800C2F2B3
:10430000000001A9FDF764FD002818BFFCF7ECFCD4
:1043100008B080BD80B588B040F2441040F600027D
:104320000021C2F20000C4F2000241F63F7340F2E5
:10433000E73C0791CDE905110291C0E90023C0E9EE
:10434000021C01618161FDF799FD002818BFFCF78F
:10435000CBFC4FF48050049040F24410C2F20000B5
:1043600004A9FDF755FE002818BFFCF7BDFC00208E
:104370000190039040F24410C2F2000001A9FDF741
:1043800027FD002818BFFCF7AFFC08B080BD000077
:1043900080B540F2901043F60001C2F20000C4F272
:1043A000010100234FF00C0C4FF4165280E80E0070
:1043B000C0E90333C0E905C3C0E90733C0E90933E5
:1043C000FFF768F8002818BFFCF78EFC40F2901049
:1043D000C2F200000021FEF7F5FC002818BFFCF730
:1043E00083FC40F29010C2F200000021FEF7A2FC14
:1043F000002818BFFCF778FC40F29010C2F20000D1
:10440000FEF778FC002808BF80BDBDE88040FCF7BF
:104410006BBC0000FEE70000FEE7000070470000F4
:1044200040F21840C4F600000169002241F4007116
:10443000016101694FF0030C41F480710161016871
:1044400041F020010160C0F8FC23016941F0200126
:10445000016100BF00BF00BF016841F020010160A1
:10446000016841F4807101600121C0F8FC13036907
:1044700043F02003036100BF00BF00BF036843F0A7
:1044800020030360036843F480730360036943F40B
:1044900000730361036943F480730361036843F0AD
:1044A00020030360C0F8FC13036943F02003036199
:1044B00000BF00BF00BF036843F020030360036830
:1044C00043F480730360C0F8FC23026942F02002C9
:1044D000026100BF00BF00BF026842F0200202601C
:1044E000026842F480720260026942F40072026162
:1044F000026942F480720261026842F020020260A6
:104500001022C0F8FC23026942F02002026100BFC1
:1045100000BF00BF026842F020020260026842F45D
:104520008072026041F29072C0F8FC23026942F08E
:104530002002026100BF00BF00BF026842F02002FB
:104540000260026842F480720260026942F4007202
:104550000261026942F480720261026842F0200244
:1045600002606022C0F8FC23026942F0200202616E
:1045700000BF00BF00BF026842F020020260026874
:1045800042F4807202604FF41C52C0F8FC230269AE
:1045900042F02002026100BF00BF00BF026842F08B
:1045A00020020260026842F480720260026942F4F2
:1045B00000720261026942F480720261026842F094
:1045C000200202606122C0F8FC23026942F020024E
:1045D000026100BF00BF00BF026842F0200202601B
:1045E000026842F480720260C0F8FC13016941F075
:1045F0002001016100BF00BF00BF016841F0200140
:104600000160016841F480710160016941F4007149
:104610000161016941F480710161016841F020018B
:1046200001604621C0F8FC13016941F020010161DD
:1046300000BF00BF00BF016841F0200101600168B8
:1046400041F4807101600221C0F8FC13026942F05C
:104650002002026100BF00BF00BF026842F02002DA
:104660000260026842F480720260026942F40072E1
:104670000261026942F480720261026842F0200223
:1046800002601322C0F8FC23026942F0200202619A
:1046900000BF00BF00BF026842F020020260026853
:1046A00042F48072026048F21002C0F8FC230269F2
:1046B00042F02002026100BF00BF00BF026842F06A
:1046C00020020260026842F480720260026942F4D1
:1046D00000720261026942F480720261026842F073
:1046E000200202601222C0F8FC23026942F020027C
:1046F000026100BF00BF00BF026842F020020260FA
:10470000026842F48072026048F2FE02C0F8FC23A4
:10471000026942F02002026100BF00BF00BF0268D0
:1047200042F020020260026842F480720260026974
:1047300042F400720261026942F48072026102680E
:1047400042F020020260C0F8FC13016941F0200130
:10475000016100BF00BF00BF016841F0200101609E
:10476000016841F4807101604FF4A061C0F8FC134E
:10477000016941F02001016100BF00BF00BF016875
:1047800041F020010160016841F48071016001691C
:1047900041F400710161016941F4807101610168B6
:1047A00041F020010160C0F8FCC3026942F0200220
:1047B000026100BF00BF00BF026842F02002026039
:1047C000026842F48072026041F23002C0F8FC23B9
:1047D000026942F02002026100BF00BF00BF026810
:1047E00042F020020260026842F4807202600269B4
:1047F00042F400720261026942F48072026102684E
:1048000042F0200202603022C0F8FC23026942F02C
:104810002002026100BF00BF00BF026842F0200218
:104820000260026842F48072026040F20332C0F813
:10483000FC23036943F02003036100BF00BF00BFF6
:10484000036843F020030360036843F4807303604C
:10485000036943F400730361036943F480730361E4
:10486000036843F0200303603123C0F8FC3303697D
:1048700043F02003036100BF00BF00BF036843F0A3
:1048800020030360036843F480730360C0F8FC23D3
:10489000036943F02003036100BF00BF00BF03684A
:1048A00043F020030360036843F4807303600369EB
:1048B00043F400730361036943F480730361036885
:1048C00043F0200303603223C0F8FC33036943F054
:1048D0002003036100BF00BF00BF036843F0200353
:1048E0000360036843F480730360C0F8FC2303692A
:1048F00043F02003036100BF00BF00BF036843F023
:1049000020030360036843F480730360036943F486
:1049100000730361036943F480730361036843F028
:10492000200303603323C0F8FC33036943F0200302
:10493000036100BF00BF00BF036843F020030360B2
:10494000036843F4807303604FF44073C0F8FC3392
:10495000016941F02001016100BF00BF00BF016893
:1049600041F020010160016841F48071016001693A
:1049700041F400710161016941F4807101610168D4
:1049800041F0200101603421C0F8FC13016941F0BD
:104990002001016100BF00BF00BF016841F020019C
:1049A0000160016841F480710160C0F8FCC30169D5
:1049B00041F02001016100BF00BF00BF016841F06C
:1049C00020010160016841F480710160016941F4D6
:1049D00000710161016941F480710161016841F078
:1049E000200101603521C0F8FC13016941F020016C
:1049F000016100BF00BF00BF016841F020010160FC
:104A0000016841F480710160C0F8FC23016941F044
:104A10002001016100BF00BF00BF016841F020011B
:104A20000160016841F480710160016941F4007125
:104A30000161016941F480710161016841F0200167
:104A400001603621C0F8FC13016941F020010161C9
:104A500000BF00BF00BF016841F020010160016894
:104A600041F4807101601421C0F8FC13016941F028
:104A70002001016100BF00BF00BF016841F02001BB
:104A80000160016841F480710160016941F40071C5
:104A90000161016941F480710161016841F0200107
:104AA00001603721C0F8FC13016941F02001016168
:104AB00000BF00BF00BF016841F020010160016834
:104AC00041F480710160C0F8FC23016941F02001CC
:104AD000016100BF00BF00BF016841F0200101601B
:104AE000016841F480710160016941F40071016164
:104AF000016941F480710161016841F020010160A8
:104B00003821C0F8FC13016941F02001016100BFA8
:104B100000BF00BF016841F020010160016841F45D
:104B200080710160C0F8FC23016941F0200101613E
:104B300000BF00BF00BF016841F0200101600168B3
:104B400041F480710160016941F400710161016902
:104B500041F480710161016841F020010160392157
:104B6000C0F8FC13016941F02001016100BF00BFE2
:104B700000BF016841F020010160016841F48071CB
:104B80000160C0F8FC23016941F02001016100BF10
:104B900000BF00BF016841F020010160016841F4DD
:104BA00080710160016941F400710161016941F4A2
:104BB00080710161016841F0200101603A21C0F873
:104BC000FC13016941F02001016100BF00BF00BF7B
:104BD000016841F020010160016841F480710160C9
:104BE000C0F8FC33016941F02001016100BF00BF42
:104BF00000BF016841F020010160016841F480714B
:104C00000160016941F400710161016941F4807141
:104C10000161016841F0200101603B21C0F8FC13F3
:104C2000016941F02001016100BF00BF00BF0168C0
:104C300041F020010160016841F480710160C0F819
:104C4000FCC3016941F02001016100BF00BF00BF4A
:104C5000016841F020010160016841F48071016048
:104C6000016941F400710161016941F480710161E0
:104C7000016841F0200101603C21C0F8FC1301698A
:104C800041F02001016100BF00BF00BF016841F099
:104C900020010160016841F480710160C0F8FC23CB
:104CA000016941F02001016100BF00BF00BF016840
:104CB00041F020010160016841F4807101600169E7
:104CC00041F400710161016941F480710161016881
:104CD00041F0200101603D21C0F8FC13016941F061
:104CE0002001016100BF00BF00BF016841F0200149
:104CF0000160016841F4807101604FF4A051C0F877
:104D0000FC13016941F02001016100BF00BF00BF39
:104D1000016841F020010160016841F48071016087
:104D2000016941F400710161016941F4807101611F
:104D3000016841F0200101609221C0F8FC13016973
:104D400041F02001016100BF00BF00BF016841F0D8
:104D500020010160016841F4807101604FF400712D
:104D6000C0F8FC13016941F02001016100BF00BFE0
:104D700000BF016841F020010160016841F48071C9
:104D80000160016941F400710161016941F48071C0
:104D90000161016841F0200101609321C0F8FC131A
:104DA000016941F02001016100BF00BF00BF01683F
:104DB00041F020010160016841F480710160C0F898
:104DC000FC23016941F02001016100BF00BF00BF69
:104DD000016841F020010160016841F480710160C7
:104DE000016941F400710161016941F4807101615F
:104DF000016841F0200101609021C0F8FC130169B5
:104E000041F02001016100BF00BF00BF016841F017
:104E100020010160016841F48071016040F60D01DC
:104E2000C0F8FC13016941F02001016100BF00BF1F
:104E300000BF016841F020010160016841F4807108
:104E40000160016941F400710161016941F48071FF
:104E50000161016841F020010160C0F8FCC30169F3
:104E600041F02001016100BF00BF00BF016841F0B7
:104E700020010160016841F48071016041F2180174
:104E8000C0F8FC13016941F02001016100BF00BFBF
:104E900000BF016841F020010160016841F48071A8
:104EA0000160016941F400710161016941F480719F
:104EB0000161016841F0200101600721C0F8FC1385
:104EC000016941F02001016100BF00BF00BF01681E
:104ED00041F020010160016841F48071016040F2FD
:104EE0007311C0F8FC13016941F02001016100BF9A
:104EF00000BF00BF016841F020010160016841F47A
:104F000080710160704700002DE9F04F81B040F2E0
:104F10001844C4F6000420694FF0120940F40070F0
:104F200020612069002540F48070206120681126EE
:104F300040F020002060E320C4F8FC0320694FF01B
:104F4000130B40F02000206100BF00BF00BF2068AD
:104F5000102740F02000206020684FF0070840F440
:104F60008070206043F20800C4F8FC03206940F020
:104F70002000206100BF00BF00BF206840F020007B
:104F80002060206840F480702060206940F4007048
:104F90002061206940F480702061206840F020008A
:104FA0002060E720C4F8FC03206940F02000206165
:104FB00000BF00BF00BF206840F0200020602068D4
:104FC00040F480702060C4F8FC93206940F0200019
:104FD000206100BF00BF00BF206840F020002060BB
:104FE000206840F480702060206940F400702061E7
:104FF000206940F480702061206840F0200020602B
:10500000EF20C4F8FC03206940F02000206100BFBD
:1050100000BF00BF206840F020002060206840F4FE
:105020008070206041F23120C4F8FC03206940F018
:105030002000206100BF00BF00BF206840F02000BA
:105040002060206840F480702060206940F4007087
:105050002061206940F480702061206840F02000C9
:1050600020600120C4F8FC03206940F0200020618A
:1050700000BF00BF00BF206840F020002060206813
:1050800040F480702060C4F8FC53206940F0200098
:10509000206100BF00BF00BF206840F020002060FA
:1050A000206840F480702060206940F40070206126
:1050B000206940F480702061206840F0200020606A
:1050C0000220C4F8FC03206940F02000206100BFEA
:1050D00000BF00BF206840F020002060206840F43E
:1050E000807020604FF4E060C4F8FC03206940F059
:1050F0002000206100BF00BF00BF206840F02000FA
:105100002060206840F480702060206940F40070C6
:105110002061206940F480702061206840F0200008
:1051200020600320C4F8FC03206940F020002061C7
:1051300000BF00BF00BF206840F020002060206852
:1051400040F48070206041F23000C4F8FC03206914
:1051500040F02000206100BF00BF00BF206840F089
:1051600020002060206840F480702060206940F4B6
:1051700000702061206940F480702061206840F058
:10518000200020600420C4F8FC03206940F02000C7
:10519000206100BF00BF00BF206840F020002060F9
:1051A000206840F480702060C4F8FC53206940F00F
:1051B0002000206100BF00BF00BF206840F0200039
:1051C0002060206840F480702060206940F4007006
:1051D0002061206940F480702061206840F0200048
:1051E00020600820C4F8FC03206940F02000206102
:1051F00000BF00BF00BF206840F020002060206892
:1052000040F48070206040F20720C4F8FC0320695D
:1052100040F02000206100BF00BF00BF206840F0C8
:1052200020002060206840F480702060206940F4F5
:1052300000702061206940F480702061206840F097
:10524000200020600920C4F8FC03206940F0200001
:10525000206100BF00BF00BF206840F02000206038
:10526000206840F480702060C4F8FC53206940F04E
:105270002000206100BF00BF00BF206840F0200078
:105280002060206840F480702060206940F4007045
:105290002061206940F480702061206840F0200087
:1052A00020600A20C4F8FC03206940F0200020613F
:1052B00000BF00BF00BF206840F0200020602068D1
:1052C00040F480702060C4F8FC53206940F0200056
:1052D000206100BF00BF00BF206840F020002060B8
:1052E000206840F480702060206940F400702061E4
:1052F000206940F480702061206840F02000206028
:105300000C20C4F8FC03206940F02000206100BF9D
:1053100000BF00BF206840F020002060206840F4FB
:1053200080702060C4F8FC53206940F020002061A8
:1053300000BF00BF00BF206840F020002060206850
:1053400040F480702060206940F400702061206982
:1053500040F480702061206840F0200020600D2023
:10536000C4F8FC03206940F02000206100BF00BFAA
:1053700000BF206840F020002060206840F480706A
:105380002060C4F8FC53206940F02000206100BF79
:1053900000BF00BF206840F020002060206840F47B
:1053A00080702060206940F400702061206940F422
:1053B00080702061206840F0200020600F20C4F839
:1053C000FC03206940F02000206100BF00BF00BF47
:1053D000206840F020002060206840F48070206049
:1053E000C4F8FC53206940F02000206100BF00BFDA
:1053F00000BF206840F020002060206840F48070EA
:105400002060206940F400702061206940F48070C1
:105410002061206840F0200020601020C4F8FC03C8
:10542000206940F02000206100BF00BF00BF20685D
:1054300040F020002060206840F480702060C4F8B4
:10544000FC53206940F02000206100BF00BF00BF76
:10545000206840F020002060206840F480702060C8
:10546000206940F400702061206940F48070206160
:10547000206840F020002060C4F8FC63206940F000
:105480002000206100BF00BF00BF206840F0200066
:105490002060206840F4807020600720C4F8FC037E
:1054A000206940F02000206100BF00BF00BF2068DD
:1054B00040F020002060206840F480702060206967
:1054C00040F400702061206940F480702061206801
:1054D00040F020002060C4F8FC93206940F02000D8
:1054E000206100BF00BF00BF206840F020002060A6
:1054F000206840F480702060C4F8FC53206940F0BC
:105500002000206100BF00BF00BF206840F02000E5
:105510002060206840F480702060206940F40070B2
:105520002061206940F480702061206840F02000F4
:105530002060C4F8FCB3206940F02000206100BF67
:1055400000BF00BF206840F020002060206840F4C9
:1055500080702060C4F8FC53206940F02000206176
:1055600000BF00BF00BF206840F02000206020681E
:1055700040F480702060C820FBF734FC20694FF0B5
:10558000320A40F400702061206940F4807020618C
:10559000206840F020002060C4F8FC7320691027C8
:1055A00040F02000206100BF00BF00BF206840F035
:1055B00020002060206840F48070206041F29060FC
:1055C000C4F8FC03206940F02000206100BF00BF48
:1055D00000BF206840F020002060206840F4807008
:1055E0002060206940F400702061206940F48070E0
:1055F0002061206840F020002060C4F8FC6320692E
:1056000040F02000206100BF00BF00BF206840F0D4
:1056100020002060206840F48070206040F2272045
:10562000C4F8FC03206940F02000206100BF00BFE7
:1056300000BF206840F020002060206840F48070A7
:1056400020603220FBF7CEFB206940F4007020611F
:10565000206940F480702061206840F020002060C4
:10566000C4F8FC93206940F02000206100BF00BF17
:1056700000BF206840F020002060206840F4807067
:1056800020601D20C4F8FC03206940F02000206148
:1056900000BF00BF00BF206840F0200020602068ED
:1056A00040F4807020603220FBF79CFB206940F4BE
:1056B00000702061206940F480702061206840F013
:1056C00020002060C4F8FCB3206940F02000206175
:1056D00000BF00BF00BF206840F0200020602068AD
:1056E00040F4807020604FF40060C4F8FC0320692F
:1056F00040F02000206100BF00BF00BF206840F0E4
:1057000020002060206840F480702060206940F410
:1057100000702061206940F480702061206840F0B2
:10572000200020602920C4F8FC03206940F02000FC
:10573000206100BF00BF00BF206840F02000206053
:10574000206840F4807020601420C4F8FC032069B5
:1057500040F02000206100BF00BF00BF206840F083
:1057600020002060206840F480702060206940F4B0
:1057700000702061206940F480702061206840F052
:10578000200020602B20C4F8FC03206940F020009A
:10579000206100BF00BF00BF206840F020002060F3
:1057A000206840F4807020600B20C4F8FC0320695E
:1057B00040F02000206100BF00BF00BF206840F023
:1057C00020002060206840F4807020603220FBF7C9
:1057D00009FB2069032140F4007020612069072241
:1057E00040F480702061206840F02000206020207C
:1057F000C4F8FC03206940F02000206100BF00BF16
:1058000000BF206840F020002060206840F48070D5
:105810002060C4F8FC53206940F02000206100BFE4
:1058200000BF00BF206840F020002060206840F4E6
:1058300080702060206940F400702061206940F48D
:1058400080702061206840F0200020602120C4F892
:10585000FC03206940F02000206100BF00BF00BFB2
:10586000206840F020002060206840F480702060B4
:10587000C4F8FC53206940F02000206100BF00BF45
:1058800000BF206840F020002060206840F4807055
:105890002060206940F400702061206940F480702D
:1058A0002061206840F0200020603020C4F8FC0314
:1058B000206940F02000206100BF00BF00BF2068C9
:1058C00040F020002060206840F480702060C4F820
:1058D000FC83206940F02000206100BF00BF00BFB2
:1058E000206840F020002060206840F48070206034
:1058F000206940F400702061206940F480702061CC
:10590000206840F0200020603120C4F8FC032069AA
:1059100040F02000206100BF00BF00BF206840F0C1
:1059200020002060206840F48070206040F2077002
:10593000C4F8FC03206940F02000206100BF00BFD4
:1059400000BF206840F020002060206840F4807094
:105950002060206940F400702061206940F480706C
:105960002061206840F020002060C4F8FCA320697A
:1059700040F02000206100BF00BF00BF206840F061
:1059800020002060206840F4807020600620C4F869
:10599000FC03206940F02000206100BF00BF00BF71
:1059A000206840F020002060206840F48070206073
:1059B000206940F400702061206940F4807020610B
:1059C000206840F0200020603520C4F8FC032069E6
:1059D00040F02000206100BF00BF00BF206840F001
:1059E00020002060206840F48070206040F2047045
:1059F000C4F8FC03206940F02000206100BF00BF14
:105A000000BF206840F020002060206840F48070D3
:105A10002060206940F400702061206940F48070AB
:105A20002061206840F0200020603620C4F8FC038C
:105A3000206940F02000206100BF00BF00BF206847
:105A400040F020002060206840F48070206041F623
:105A50000470C4F8FC03206940F02000206100BFFE
:105A600000BF00BF206840F020002060206840F4A4
:105A700080702060206940F400702061206940F44B
:105A800080702061206840F0200020603720C4F83A
:105A9000FC03206940F02000206100BF00BF00BF70
:105AA000206840F020002060206840F48070206072
:105AB0000420C4F8FC03206940F02000206100BFEE
:105AC00000BF00BF206840F020002060206840F444
:105AD00080702060206940F400702061206940F4EB
